:100000000C942A000C943F000C943F000C943F0089
:100010000C943F000C943F000C943F000C943F0064
:100020000C943F000C943F000C943F000C943F0054
:100030000C943F000C943F000C943F000C943F0044
:100040000C943F000C943F000C943F000C943F0034
:100050000C943F0011241FBECFE5D8E0DEBFCDBF1A
:1000600011E0A0E6B0E0E0E8F4E302C005900D92F4
:10007000AE37B107D9F70E94D1190C943E1A0C94EF
:100080000000EF92FF920F931F937B018C0120E001
:1000900030E040E05FE40E941D0488238CF0C8013A
:1000A000B70120E030E040E05FE40E94B9010E9427
:1000B0007D049B01AC01205030404040504806C0B8
:1000C000C801B7010E947D049B01AC01B901CA01BE
:1000D0001F910F91FF90EF900895A0E0B0E0E3E74B
:1000E000F0E00C94071ADC012B01FA019C9192308C
:1000F00008F439C1EB018881823008F433C19430AF
:1001000069F4843009F02FC111969C91119789816F
:10011000981709F428C1A5E7B0E025C1843009F497
:1001200021C18230A9F4923009F01DC19A01AD01BC
:1001300088E0EA010990AE01E90109929E0181502F
:10014000C1F7E201898111969C918923818308C1BD
:10015000923009F407C112962D903C901397EB0151
:100160008A819B811496AD90BD90CD90DC901797BD
:10017000EC80FD800E811F819101281B390BB90194
:1001800037FF04C066277727621B730B6032710547
:100190000CF061C0121613066CF537014801062EEB
:1001A00004C096948794779467940A94D2F721E0D8
:1001B00030E040E050E004C0220F331F441F551FC1
:1001C0006A95D2F721503040404050402E213F21C7
:1001D00040235123211531054105510521F021E02E
:1001E00030E040E050E079018A01E628F72808294C
:1001F00019293CC0232BD1F1260E371E35014601AB
:10020000062E04C096948794779467940A94D2F744
:1002100021E030E040E050E004C0220F331F441FD3
:10022000551F6A95D2F721503040404050402A2156
:100230003B214C215D21211531054105510521F05E
:1002400021E030E040E050E059016A01A628B728DB
:10025000C828D9280BC0821593052CF01C01AA24AC
:10026000BB24650103C0EE24FF24870111969C91F5
:10027000D20111968C91981709F445C0992339F051
:10028000A80197012A193B094C095D0906C0A6017E
:1002900095012E193F09400B510B57FD08C01182E3
:1002A0003382228224833583468357831DC081E0B5
:1002B00081833382228288279927DC01821B930B5A
:1002C000A40BB50B84839583A683B7830DC0220F3F
:1002D000331F441F551F24833583468357838281F0
:1002E000938101979383828324813581468157814D
:1002F000DA01C9010197A109B1098F5F9F4FAF4F83
:10030000BF4328F30BC0918333822282EA0CFB1C8B
:100310000C1D1D1DE482F5820683178383E0808314
:10032000248135814681578157FF1AC0C901AA2708
:1003300097FDA095BA2F81709070A070B0705695FF
:10034000479537952795822B932BA42BB52B848328
:100350009583A683B7838281938101969383828359
:10036000DF0101C0D201CD01CDB7DEB7E2E10C94CF
:10037000231AA0E2B0E0EFEBF1E00C94131A6983CA
:100380007A838B839C832D833E834F835887E9E058
:10039000EE2EF12CEC0EFD1ECE010196B7010E944F
:1003A0006E068E010F5E1F4FCE010596B8010E94AA
:1003B0006E068A8991E089278A8BC701B801AE0150
:1003C000475E5F4F0E946D000E949905A096E6E08F
:1003D0000C942F1AA0E2B0E0E0EFF1E00C94131AB5
:1003E00069837A838B839C832D833E834F835887D5
:1003F000F9E0EF2EF12CEC0EFD1ECE010196B701B7
:100400000E946E068E010F5E1F4FCE010596B80149
:100410000E946E06C701B801AE01475E5F4F0E94A1
:100420006D000E949905A096E6E00C942F1AA0E2B8
:10043000B0E0EDE1F2E00C94071A69837A838B83D4
:100440009C832D833E834F835887CE010196BE0146
:10045000675F7F4F0E946E06CE010596BE016F5EFC
:100460007F4F0E946E069985923088F0898982308C
:10047000C8F0943019F4823051F404C0843029F467
:10048000923081F485E790E0C6C0923049F420E0D4
:100490009A858A89981321E02A87CE010996BBC0E4
:1004A000823049F420E09A858A89981321E02A8BCA
:1004B000CE014196B0C02D843E844F8458886D880B
:1004C0007E888F88988CEE24FF248701AA24BB2481
:1004D000650140E050E060E070E0E0E0F0E0C10184
:1004E00081709070892BE9F0E60CF71C081D191D2E
:1004F0009A01AB012A0D3B1D4C1D5D1D80E090E073
:10050000A0E0B0E0E614F7040805190520F481E046
:1005100090E0A0E0B0E0BA01A901480F591F6A1F9E
:100520007B1FAA0CBB1CCC1CDD1C97FE08C081E005
:1005300090E0A0E0B0E0A82AB92ACA2ADB2A3196C6
:10054000E032F10549F0660C771C881C991C569422
:10055000479437942794C3CFFA85EA892B893C893D
:100560008B859C85280F391F2E5F3F4F17C0CA010E
:1005700081709070892B61F016950795F794E79438
:1005800080E090E0A0E0B0E8E82AF92A0A2B1B2BD3
:1005900076956795579547952F5F3F4F77FDE7CF46
:1005A0000CC0440F551F661F771F17FD4160EE0CEE
:1005B000FF1C001F111F21503040403090E05907B0
:1005C00090E0690790E4790760F32B8F3C8FDB01A3
:1005D000CA018F779070A070B07080349105A1052A
:1005E000B10561F447FD0AC0E114F10401051105EC
:1005F00029F0405C5F4F6F4F7F4F40781A8EFE1797
:1006000011F081E08A8F4D8F5E8F6F8F78A383E02A
:10061000898FCE0149960E949905A096E2E10C943B
:10062000231AA8E1B0E0E7E1F3E00C940F1A698324
:100630007A838B839C832D833E834F835887B9E0D5
:10064000EB2EF12CEC0EFD1ECE010196B7010E949F
:100650006E068E010F5E1F4FCE010596B8010E94F7
:100660006E062985223008F47EC03989323010F4B4
:10067000B8017CC08A859A8989278A87243011F03D
:10068000223031F4231709F06EC065E770E06EC0C8
:10069000343039F41D861E861F86188A1C861B86F8
:1006A00004C0323021F484E08987B7015FC02B8514
:1006B0003C858B899C89281B390B3C872B87ED84D3
:1006C000FE840F851889AD88BE88CF88D88CEA143F
:1006D000FB040C051D0540F4EE0CFF1C001F111F50
:1006E000215030403C872B8720E030E040E050E054
:1006F00080E090E0A0E0B0E460E070E0EA14FB0489
:100700000C051D0540F0282B392B4A2B5B2BEA18D2
:10071000FB080C091D09B695A79597958795EE0CD2
:10072000FF1C001F111F6F5F7F4F6F31710531F785
:10073000DA01C9018F779070A070B0708034910594
:10074000A105B10561F427FD0AC0E114F10401051A
:10075000110529F0205C3F4F4F4F5F4F20782D87C8
:100760003E874F87588BBE01675F7F4FCB010E944A
:1007700099056896EAE00C942B1AA8E1B0E0E3EC46
:10078000F3E00C94131A69837A838B839C832D8303
:100790003E834F83588789E0E82EF12CEC0EFD1E36
:1007A000CE010196B7010E946E068E010F5E1F4FAB
:1007B000CE010596B8010E946E068985823040F010
:1007C0008989823028F0C701B8010E94E60601C07D
:1007D00081E06896E6E00C942F1AA8E1B0E0E3EF20
:1007E000F3E00C94131A69837A838B839C832D83A3
:1007F0003E834F83588789E0E82EF12CEC0EFD1ED6
:10080000CE010196B7010E946E068E010F5E1F4F4A
:10081000CE010596B8010E946E068985823040F0AF
:100820008989823028F0C701B8010E94E60601C01C
:100830008FEF6896E6E00C942F1AA8E1B0E0E3E2AF
:10084000F4E00C94131A69837A838B839C832D8341
:100850003E834F83588789E0E82EF12CEC0EFD1E75
:10086000CE010196B7010E946E068E010F5E1F4FEA
:10087000CE010596B8010E946E068985823040F04F
:100880008989823028F0C701B8010E94E60601C0BC
:100890008FEF6896E6E00C942F1AA8E1B0E0E3E54C
:1008A000F4E00C94131A69837A838B839C832D83E1
:1008B0003E834F83588789E0E82EF12CEC0EFD1E15
:1008C000CE010196B7010E946E068E010F5E1F4F8A
:1008D000CE010596B8010E946E068985823040F0EF
:1008E0008989823028F0C701B8010E94E60601C05C
:1008F00081E06896E6E00C942F1AACE0B0E0E3E803
:10090000F4E00C94171A69837A838B839C83CE015D
:100910000196BE016B5F7F4F0E946E068D81823013
:1009200061F1823050F1843021F48E81882351F1BD
:100930002EC02F81388537FD20C06E812F313105C3
:100940001CF06623F9F023C08EE190E0821B930B2C
:1009500029853A854B855C8504C056954795379522
:1009600027958A95D2F76623B1F05095409530953A
:1009700021953F4F4F4F5F4F0EC020E030E040E0E9
:1009800050E009C02FEF3FEF4FEF5FE704C020E0DA
:1009900030E040E050E8B901CA012C96E2E00C9446
:1009A000331AA8E0B0E0E7EDF4E00C940F1A7B01F5
:1009B0008C01611571058105910519F482E0898327
:1009C00060C083E089838EE1C82ED12CDC82CB828B
:1009D000ED82FE820F831887C801B7010E944A0585
:1009E000FC013197F7FF3BC0222733272E1B3F0B1B
:1009F00057016801022E04C0D694C794B794A794F7
:100A00000A94D2F740E050E060E070E081E090E0CE
:100A1000A0E0B0E004C0880F991FAA1FBB1F2A9551
:100A2000D2F70197A109B1098E219F21A023B123FB
:100A30000097A105B10521F041E050E060E070E0D1
:100A40004A295B296C297D294D835E836F837887D2
:100A50008EE190E08E1B9F0B9C838B8312C030979E
:100A600081F00E2E04C0EE0CFF1C001F111F0A9413
:100A7000D2F7ED82FE820F831887CE1ADF0ADC825E
:100A8000CB821A82CE0101960E9499052896EAE04F
:100A90000C942B1AEF92FF920F931F937B018C0102
:100AA00080E0E81680E0F80681E0080780E018079B
:100AB00088F48FEFE816F1040105110531F028F0F4
:100AC00088E090E0A0E0B0E017C080E090E0A0E017
:100AD000B0E012C080E0E81680E0F80680E0080789
:100AE00081E0180728F088E190E0A0E0B0E004C0C1
:100AF00080E190E0A0E0B0E020E230E040E050E0B3
:100B0000281B390B4A0B5B0B04C016950795F7940D
:100B1000E7948A95D2F7F701E358FF4F8081281BAD
:100B2000310941095109C9011F910F91FF90EF90BF
:100B30000895DF92EF92FF920F931F93FC01E480E0
:100B4000F58006811781D1808081823048F480E071
:100B500090E0A0E1B0E0E82AF92A0A2B1B2BA5C0FF
:100B6000843009F49FC0823021F4EE24FF248701F1
:100B700005C0E114F1040105110519F4E0E0F0E00D
:100B800096C0628173819FEF623879070CF05BC079
:100B900022E83FEF261B370B2A3131052CF020E0ED
:100BA00030E040E050E02AC0B801A701022E04C0A6
:100BB00076956795579547950A94D2F781E090E02E
:100BC000A0E0B0E004C0880F991FAA1FBB1F2A95A0
:100BD000D2F70197A109B1098E219F21A023B1234A
:100BE0000097A105B10521F081E090E0A0E0B0E020
:100BF0009A01AB01282B392B4A2B5B2BDA01C90157
:100C00008F779070A070B07080349105A105B10508
:100C100039F427FF09C0205C3F4F4F4F5F4F04C09E
:100C2000215C3F4F4F4F5F4FE0E0F0E02030A0E00D
:100C30003A07A0E04A07A0E45A0710F0E1E0F0E02C
:100C400079018A0127C06038710564F5FB01E1581C
:100C5000FF4FD801C7018F779070A070B0708034BB
:100C60009105A105B10539F4E7FE0DC080E490E0DF
:100C7000A0E0B0E004C08FE390E0A0E0B0E0E80EB8
:100C8000F91E0A1F1B1F17FF05C016950795F7943D
:100C9000E794319687E016950795F794E7948A953F
:100CA000D1F705C0EE24FF248701EFEFF0E06E2FAF
:100CB000679566276795902F9F77D794DD24D79403
:100CC0008E2F8695492F462B582F5D29B701CA01D3
:100CD0001F910F91FF90EF90DF900895FC01DB01D1
:100CE000408151812281622F6F7770E0221F22277D
:100CF000221F9381892F880F822B282F30E0991F84
:100D00009927991F11969C93119721153105A9F5E3
:100D1000411551056105710511F482E037C082E883
:100D20009FEF13969C938E9312979A01AB0167E005
:100D3000220F331F441F551F6A95D1F783E08C9310
:100D40000DC0220F331F441F551F12968D919C9189
:100D50001397019713969C938E931297203080E0FF
:100D6000380780E0480780E4580758F314962D931D
:100D70003D934D935C93179708952F3F310579F478
:100D8000411551056105710519F484E08C930895AE
:100D900064FF03C081E08C9312C01C9210C02F57D7
:100DA000304013963C932E93129783E08C9387E008
:100DB000440F551F661F771F8A95D1F770641496EC
:100DC0004D935D936D937C93179708951F93DC016A
:100DD000FB019C91923008F447C08081823008F476
:100DE00043C0943051F411961C91843099F581815F
:100DF000682F70E0611B71093FC0843021F0923090
:100E000031F48230B9F18181882389F12DC01196A6
:100E10001C9111978230F1F081811817D9F4129644
:100E20002D913C911397828193818217930794F0BF
:100E300028173907BCF014968D919D910D90BC91A7
:100E4000A02D2481358146815781281739074A070B
:100E50005B0718F4112341F00AC082179307A40717
:100E6000B50740F4112319F061E070E005C06FEFA1
:100E70007FEF02C060E070E0CB011F910895DF9327
:100E8000CF9300D000D000D0CDB7DEB76B837C838A
:100E90008D839E836B817C818D819E8120E030E0FB
:100EA00048EC52E40E941702DC01CB01BC01CD01E9
:100EB00020E030E040E05FE30E94EA01DC01CB018A
:100EC000BC01CD010E947D04DC01CB019A838983A2
:100ED00089819A8124E630E0B9010E94F4192696AE
:100EE0000FB6F894DEBF0FBECDBFCF91DF9108954E
:100EF000DF93CF9300D0CDB7DEB78983898183306C
:100F000049F08981873031F089818B3019F08981EE
:100F10008F3019F481E08A8301C01A828A810F9090
:100F20000F90CF91DF910895DF93CF9300D0CDB78D
:100F3000DEB789838981823019F481E08A8301C018
:100F40001A828A810F900F90CF91DF910895DF93DD
:100F5000CF93CDB7DEB72D970FB6F894DEBF0FBE97
:100F6000CDBF198618861F821E821D821C821B829D
:100F70001A820E94D313898389818031D1F38981B8
:100F8000882339F41D821C821B821A820E949814C5
:100F9000F0CF8D81882369F481E08D8389810E945F
:100FA000500A89878985992787FD90950E94FC14AE
:100FB000E0CF8B81882389F581E08B838981282F7D
:100FC00030E03D872C878C859D8587309105C9F061
:100FD0002C853D852830310534F48C859D85833002
:100FE000910561F016C02C853D852B30310561F0EF
:100FF0008C859D858F30910551F00BC08BE28F83DE
:1010000008C08DE28F8305C08AE28F8302C08FE221
:101010008F838F810E94A214ACCF8C81882369F4C6
:1010200081E08C8389810E94500A8887888599276E
:1010300087FD90950E94FC149CCF8A81882309F03B
:1010400098CF8981823009F094CF81E08A838F81A3
:10105000282F332727FD30953B872A878A859B8554
:101060008B329105B1F02A853B852C32310534F461
:101070008A859B858A329105B1F02CC02A853B85F3
:101080002D32310559F08A859B858F32910591F07B
:1010900021C089859885890F8E831CC08985988594
:1010A000891B8E8317C089859885899F802D11247F
:1010B0008E8310C08985482F552747FD5095888518
:1010C000282F332727FD3095CA01B9010E94F41952
:1010D000CB018E838DE30E94A21481E060E00E9428
:1010E000D81480E690E00E94AF148E81992787FD86
:1010F00090950E94FC143DCFDF93CF93CDB7DEB720
:10110000A0970FB6F894DEBF0FBECDBF80E090E091
:10111000A0E0B0E0898F9A8FAB8FBC8F80E090E029
:10112000A0E0B0E08D8B9E8BAF8BB88F80E090E01D
:10113000A0E0B0E0898B9A8BAB8BBC8B188A1F86A2
:101140001E861D861C860E94D3138B878B8580315B
:10115000D1F38B858823F9F41F861E861D861C8695
:1011600080E090E0A0E0B0E0898F9A8FAB8FBC8FD9
:1011700080E090E0A0E0B0E08D8B9E8BAF8BB88FCD
:1011800080E090E0A0E0B0E0898B9A8BAB8BBC8BC9
:101190000E949814D8CF8F85882309F044C08B858E
:1011A0000E9478078823B1F58B850E94500A882F0A
:1011B00090E0A0E0B0E0BC01CD010E94D104DC01D0
:1011C000CB018F839887A987BA87698D7A8D8B8D9C
:1011D0009C8D20E030E040E251E40E941702DC01E7
:1011E000CB01BC01CD012F81388549855A850E94EC
:1011F000EA01DC01CB01898F9A8FAB8FBC8F6F81A5
:10120000788589859A850E947D04DC01CB010E9446
:10121000FC1499CF8B850E947807813009F093CF19
:1012200081E08F8790CF8D85882389F581E08D8738
:101230008B85282F30E038A32F8F8F8D98A1873092
:101240009105C9F02F8D38A12830310534F48F8DE8
:1012500098A18330910561F016C02F8D38A12B30F5
:10126000310561F08F8D98A18F30910551F00BC041
:101270008BE2888B08C08DE2888B05C08AE2888B60
:1012800002C08FE2888B88890E94A2145CCF8E8571
:10129000882309F044C08B850E9494078823B1F508
:1012A0008B850E94500A882F90E0A0E0B0E0BC013E
:1012B000CD010E94D104DC01CB018B839C83AD83E3
:1012C000BE836D897E898F89988D20E030E040E271
:1012D00051E40E941702DC01CB01BC01CD012B813E
:1012E0003C814D815E810E94EA01DC01CB018D8B46
:1012F0009E8BAF8BB88F6B817C818D819E810E948C
:101300007D04DC01CB010E94FC141DCF8B850E9463
:101310009407813009F017CF81E08E8714CF8C8538
:10132000882309F010CF8B85823009F00CCF81E043
:101330008C878889282F332727FD30953E8F2D8F66
:101340008D8D9E8D8B329105B1F02D8D3E8D2C3281
:10135000310534F48D8D9E8D8A32910571F18AC0EC
:101360002D8D3E8D2D323105B9F08D8D9E8D8F32B4
:101370009105A1F17FC0698D7A8D8B8D9C8D2D8912
:101380003E894F89588D0E94EA01DC01CB01898B8F
:101390009A8BAB8BBC8B6EC0698D7A8D8B8D9C8D3F
:1013A0002D893E894F89588D0E94B901DC01CB01FE
:1013B000898B9A8BAB8BBC8B5DC0698D7A8D8B8D45
:1013C0009C8D2D893E894F89588D0E941702DC0122
:1013D000CB01898B9A8BAB8BBC8B4CC06D897E8982
:1013E0008F89988D20E030E040E050E00E94BD03FE
:1013F000882349F481E060E00E94D8148AE690E0F6
:101400000E94AF14A0CE698D7A8D8B8D9C8D2D8915
:101410003E894F89588D0E941103DC01CB01898BD5
:101420009A8BAB8BBC8B89899A89AB89BC89BC01AF
:10143000CD010E943F079A8389838DE30E94A21405
:1014400081E060E00E94D81480E690E00E94AF1432
:1014500069897A898B899C890E947D04DC01CB0192
:101460000E94FC148EE20E94A21489819A810E943B
:10147000FC1469CE8DE30E94A21481E060E00E941A
:10148000D81480E690E00E94AF1469897A898B892C
:101490009C890E947D04DC01CB010E94FC1453CE88
:1014A000DF93CF9300D000D0CDB7DEB78A83198207
:1014B0008A81282F30E03C832B838B819C8188306C
:1014C000910509F44BC02B813C8129303105DCF4B6
:1014D0008B819C8184309105C1F12B813C81253029
:1014E000310534F48B819C818130910561F147C0D5
:1014F0002B813C812530310559F18B819C818630CF
:10150000910549F13CC02B813C812C30310579F1AA
:101510008B819C818D3091055CF42B813C8129303D
:101520003105F9F08B819C818A309105E9F027C063
:101530002B813C812D303105E9F08B819C818E30EF
:101540009105D9F01CC019821AC081E0898317C0A7
:1015500082E0898314C083E0898311C084E0898399
:101560000EC085E089830BC086E0898308C087E0D0
:10157000898305C088E0898302C089E089838981E5
:101580000F900F900F900F90CF91DF910895DF9300
:10159000CF93CDB7DEB7A0970FB6F894DEBF0FBEDE
:1015A000CDBF80E090E0A0E0B0E0898F9A8FAB8F54
:1015B000BC8F80E090E0A0E0B0E08D8B9E8BAF8B85
:1015C000B88F80E090E0A0E0B0E0898B9A8BAB8B85
:1015D000BC8B188A1F861E861D861C860E94D3130C
:1015E0008B878B858031D1F38B858823F9F41F8617
:1015F0001E861D861C8680E090E0A0E0B0E0898F0A
:101600009A8FAB8FBC8F80E090E0A0E0B0E08D8B34
:101610009E8BAF8BB88F80E090E0A0E0B0E0898B2C
:101620009A8BAB8BBC8B0E949814D8CF8F85882364
:10163000D9F58B850E9478078823B1F58B850E94A8
:10164000500A882F90E0A0E0B0E0BC01CD010E94DC
:10165000D104DC01CB018F839887A987BA87698D74
:101660007A8D8B8D9C8D20E030E040E251E40E9429
:101670001702DC01CB01BC01CD012F8138854985E2
:101680005A850E94EA01DC01CB01898F9A8FAB8FCA
:10169000BC8F6F81788589859A850E947D04DC01E5
:1016A000CB010E94FC149ACF8D85882399F581E0A7
:1016B0008F8781E08D878B85282F30E038A32F8F8F
:1016C0008F8D98A187309105C9F02F8D38A12830D2
:1016D000310534F48F8D98A18330910561F016C0E7
:1016E0002F8D38A12B30310561F08F8D98A18F306F
:1016F000910551F00BC08BE2888B08C08DE2888B7E
:1017000005C08AE2888B02C08FE2888B88890E949C
:10171000A21464CF8E858823D9F58B850E94940707
:101720008823B1F58B850E94500A882F90E0A0E0B5
:10173000B0E0BC01CD010E94D104DC01CB018B8360
:101740009C83AD83BE836D897E898F89988D20E0CF
:1017500030E040E251E40E941702DC01CB01BC0101
:10176000CD012B813C814D815E810E94EA01DC012B
:10177000CB018D8B9E8BAF8BB88F6B817C818D81E4
:101780009E810E947D04DC01CB010E94FC1426CFC7
:101790008C85882309F022CF8B85823009F01ECFFB
:1017A00081E08E8781E08C878889282F332727FD69
:1017B00030953E8F2D8F8D8D9E8D8B329105B1F0A2
:1017C0002D8D3E8D2C32310534F48D8D9E8D8A32D7
:1017D000910571F18AC02D8D3E8D2D323105B9F004
:1017E0008D8D9E8D8F329105A1F17FC0698D7A8D8F
:1017F0008B8D9C8D2D893E894F89588D0E94EA01E1
:10180000DC01CB01898B9A8BAB8BBC8B6EC0698D55
:101810007A8D8B8D9C8D2D893E894F89588D0E94A4
:10182000B901DC01CB01898B9A8BAB8BBC8B5DC082
:10183000698D7A8D8B8D9C8D2D893E894F89588D30
:101840000E941702DC01CB01898B9A8BAB8BBC8B7E
:101850004CC06D897E898F89988D20E030E040E012
:1018600050E00E94BD03882349F481E060E00E94BB
:10187000D8148AE690E00E94AF14B0CE698D7A8DBC
:101880008B8D9C8D2D893E894F89588D0E94110327
:10189000DC01CB01898B9A8BAB8BBC8B89899A89B4
:1018A000AB89BC89BC01CD010E943F079A83898323
:1018B0008DE30E94A21481E060E00E94D81480E6CB
:1018C00090E00E94AF1469897A898B899C890E9473
:1018D0007D04DC01CB010E94FC148EE20E94A21464
:1018E00089819A810E94FC1479CE8DE30E94A21412
:1018F00081E060E00E94D81480E690E00E94AF147E
:1019000069897A898B899C890E947D04DC01CB01DD
:101910000E94FC1463CEDF93CF93CDB7DEB7299737
:101920000FB6F894DEBF0FBECDBF89836A834B83A9
:101930008B81882309F0C2C08981282F30E0398744
:101940002887888599858130910509F43FC02885CD
:101950003985223031052CF488859985009771F0FE
:10196000E1C1288539852230310509F457C08885C1
:1019700099858330910509F479C0D4C1AAE3B0E018
:10198000EAE3F0E08081482F8A81282F30E081E06F
:1019900090E002C0880F991F2A95E2F78095842372
:1019A0008C93ABE3B0E0EBE3F0E08081482F8A81D9
:1019B000282F30E081E090E0022E02C0880F991FAE
:1019C0000A94E2F7809584238C93ACC1A7E3B0E03E
:1019D000E7E3F0E08081482F8A81282F30E081E022
:1019E00090E002C0880F991F2A95E2F78095842322
:1019F0008C93A8E3B0E0E8E3F0E08081482F8A818F
:101A0000282F30E081E090E0022E02C0880F991F5D
:101A10000A94E2F7809584238C9384C1A4E3B0E018
:101A2000E4E3F0E08081482F8A81282F30E081E0D4
:101A300090E002C0880F991F2A95E2F780958423D1
:101A40008C93A5E3B0E0E5E3F0E08081482F8A8144
:101A5000282F30E081E090E0022E02C0880F991F0D
:101A60000A94E2F7809584238C935CC1A1E3B0E0F3
:101A7000E1E3F0E08081482F8A81282F30E081E087
:101A800090E002C0880F991F2A95E2F78095842381
:101A90008C93A2E3B0E0E2E3F0E08081482F8A81FA
:101AA000282F30E081E090E0022E02C0880F991FBD
:101AB0000A94E2F7809584238C9334C18B81813022
:101AC00009F0BEC08981282F30E03F832E838E81AC
:101AD0009F818130910509F43EC02E813F812230E3
:101AE00031052CF48E819F81009771F01BC12E81EE
:101AF0003F812230310509F455C08E819F818330AA
:101B0000910509F476C00EC1AAE3B0E0EAE3F0E083
:101B10008081482F8A81282F30E081E090E002C048
:101B2000880F991F2A95E2F7809584238C93ABE365
:101B3000B0E0EBE3F0E08081482F8A81282F30E08D
:101B400081E090E0022E02C0880F991F0A94E2F70C
:101B5000842B8C93E7C0A7E3B0E0E7E3F0E080815B
:101B6000482F8A81282F30E081E090E002C0880F62
:101B7000991F2A95E2F7809584238C93A8E3B0E01F
:101B8000E8E3F0E08081482F8A81282F30E081E06F
:101B900090E0022E02C0880F991F0A94E2F7842B6E
:101BA0008C93C0C0A4E3B0E0E4E3F0E08081482F70
:101BB0008A81282F30E081E090E002C0880F991FD1
:101BC0002A95E2F7809584238C93A5E3B0E0E5E3C2
:101BD000F0E08081482F8A81282F30E081E090E07A
:101BE000022E02C0880F991F0A94E2F7842B8C936F
:101BF00099C0A1E3B0E0E1E3F0E08081482F8A8161
:101C0000282F30E081E090E002C0880F991F2A95CC
:101C1000E2F7809584238C93A2E3B0E0E2E3F0E066
:101C20008081482F8A81282F30E081E090E0022EC9
:101C300002C0880F991F0A94E2F7842B8C9372C01C
:101C40008B81823009F06EC08981282F30E03D837E
:101C50002C838C819D818130910549F12C813D81BE
:101C6000223031052CF48C819D81009761F05AC09F
:101C70002C813D812230310571F18C819D81833031
:101C80009105E9F14FC0AAE3B0E0EAE3F0E080811A
:101C9000482F8A81282F30E081E090E0022E02C098
:101CA000880F991F0A94E2F7842B8C933BC0A7E31B
:101CB000B0E0E7E3F0E08081482F8A81282F30E010
:101CC00081E090E0022E02C0880F991F0A94E2F78B
:101CD000842B8C9327C0A4E3B0E0E4E3F0E08081A0
:101CE000482F8A81282F30E081E090E0022E02C048
:101CF000880F991F0A94E2F7842B8C9313C0A1E3F9
:101D0000B0E0E1E3F0E08081482F8A81282F30E0C5
:101D100081E090E0022E02C0880F991F0A94E2F73A
:101D2000842B8C9329960FB6F894DEBF0FBECDBFDF
:101D3000CF91DF910895DF93CF93CDB7DEB72A9788
:101D40000FB6F894DEBF0FBECDBF89836A838A8148
:101D50008823D9F58981282F30E03A87298789851A
:101D60009A8581309105E1F029853A852230310547
:101D70002CF489859A85009761F0D2C029853A852F
:101D800022303105A1F089859A8583309105B1F023
:101D9000C7C0EAE3F0E01082EBE3F0E01082C0C0DD
:101DA000E7E3F0E01082E8E3F0E01082B9C0E4E39A
:101DB000F0E01082E5E3F0E01082B2C0E1E3F0E091
:101DC0001082E2E3F0E01082ABC08A81813009F03A
:101DD0003FC08981282F30E038872F838F819885F5
:101DE00081309105E9F02F813885223031052CF4BE
:101DF0008F819885009761F093C02F8138852230BC
:101E00003105B1F08F81988583309105C9F088C084
:101E1000EAE3F0E01082EBE3F0E08FEF808380C034
:101E2000E7E3F0E01082E8E3F0E08FEF808378C032
:101E3000E4E3F0E01082E5E3F0E08FEF808370C030
:101E4000E1E3F0E01082E2E3F0E08FEF808368C02E
:101E50008A81823099F58981282F30E03E832D8355
:101E60008D819E8181309105D1F02D813E8122307E
:101E700031052CF48D819E81009761F051C02D8138
:101E80003E812230310581F08D819E818330910524
:101E900081F046C0EAE3F0E08FEF808341C0E7E3E2
:101EA000F0E08FEF80833CC0E4E3F0E08FEF8083CD
:101EB00037C0E1E3F0E08FEF808332C08981282FC3
:101EC00030E03C832B838B819C8181309105D1F064
:101ED0002B813C81223031052CF48B819C81009731
:101EE00061F01EC02B813C812230310581F08B8155
:101EF0009C818330910581F013C0EAE3F0E08A8190
:101F000080830EC0E7E3F0E08A81808309C0E4E3C8
:101F1000F0E08A81808304C0E1E3F0E08A8180837D
:101F20002A960FB6F894DEBF0FBECDBFCF91DF91DA
:101F30000895DF93CF93CDB7DEB727970FB6F89408
:101F4000DEBF0FBECDBF89836A834B838B81813017
:101F500009F06FC08981282F30E03F832E838E8166
:101F60009F818130910549F12E813F8122303105D9
:101F70002CF48E819F81009761F0D2C02E813F8129
:101F80002230310571F18E819F8183309105E9F115
:101F9000C7C0ABE3B0E0EBE3F0E08081482F8A817B
:101FA000282F30E081E090E0022E02C0880F991FB8
:101FB0000A94E2F7842B8C93B3C0A8E3B0E0E8E383
:101FC000F0E08081482F8A81282F30E081E090E086
:101FD000022E02C0880F991F0A94E2F7842B8C937B
:101FE0009FC0A5E3B0E0E5E3F0E08081482F8A815F
:101FF000282F30E081E090E0022E02C0880F991F68
:102000000A94E2F7842B8C938BC0A2E3B0E0E2E366
:10201000F0E08081482F8A81282F30E081E090E035
:10202000022E02C0880F991F0A94E2F7842B8C932A
:1020300077C08B81882309F073C08981282F30E015
:102040003D832C838C819D818130910559F12C81B8
:102050003D81223031052CF48C819D81009769F0FF
:102060005FC02C813D812230310589F18C819D81B9
:102070008330910509F440C053C0ABE3B0E0EBE31B
:10208000F0E08081482F8A81282F30E081E090E0C5
:10209000022E02C0880F991F0A94E2F780958423CC
:1020A0008C933EC0A8E3B0E0E8E3F0E08081482FE5
:1020B0008A81282F30E081E090E0022E02C0880F54
:1020C000991F0A94E2F7809584238C9329C0A5E395
:1020D000B0E0E5E3F0E08081482F8A81282F30E0EE
:1020E00081E090E0022E02C0880F991F0A94E2F767
:1020F000809584238C9314C0A2E3B0E0E2E3F0E087
:102100008081482F8A81282F30E081E090E0022EE4
:1021100002C0880F991F0A94E2F7809584238C935C
:1021200027960FB6F894DEBF0FBECDBFCF91DF91DB
:102130000895DF93CF93CDB7DEB728970FB6F89405
:10214000DEBF0FBECDBF89836A838A81813099F556
:102150008981282F30E038872F838F8198858130BF
:102160009105D1F02F813885223031052CF48F81F3
:102170009885009761F083C02F8138852230310522
:1021800081F08F8198858330910581F078C0EBE3F1
:10219000F0E08FEF808373C0E8E3F0E08FEF80839F
:1021A0006EC0E5E3F0E08FEF808369C0E2E3F0E02A
:1021B0008FEF808364C08A81882379F58981282FF5
:1021C00030E03E832D838D819E8181309105C9F061
:1021D0002D813E81223031052CF48D819E81009726
:1021E00061F04DC02D813E812230310571F08D812D
:1021F0009E818330910569F042C0EBE3F0E01082EC
:102200003EC0E8E3F0E010823AC0E5E3F0E010827F
:1022100036C0E2E3F0E0108232C08981282F30E03E
:102220003C832B838B819C8181309105D1F02B8164
:102230003C81223031052CF48B819C81009761F028
:102240001EC02B813C812230310581F08B819C8125
:102250008330910581F013C0EBE3F0E08A81808345
:102260000EC0E8E3F0E08A81808309C0E5E3F0E096
:102270008A81808304C0E2E3F0E08A81808328962B
:102280000FB6F894DEBF0FBECDBFCF91DF9108959A
:10229000DF93CF9300D000D00F92CDB7DEB78A8303
:1022A0006B8319828A81282F30E03D832C834C81F7
:1022B0005D814130510541F18C819D8182309105D4
:1022C00034F42C813D812115310561F052C04C81DF
:1022D0005D814230510551F18C819D8183309105A2
:1022E000B9F147C0E9E3F0E08081282F30E08B812D
:1022F000882F90E0A90102C0559547958A95E2F78D
:10230000CA018170898335C0E6E3F0E08081282F1F
:1023100030E08B81882F90E0A90102C05595479548
:102320008A95E2F7CA018170898323C0E3E3F0E074
:102330008081282F30E08B81882F90E0A90102C096
:10234000559547958A95E2F7CA018170898311C036
:10235000E0E3F0E08081282F30E08B81882F90E04F
:10236000A90102C0559547958A95E2F7CA01817087
:10237000898389810F900F900F900F900F90CF91CC
:10238000DF910895DF93CF9300D000D0CDB7DEB7B3
:102390008A8319828A81282F30E03C832B838B81AA
:1023A0009C818130910549F12B813C81223031059E
:1023B0002CF48B819C81009761F05AC02B813C8169
:1023C0002230310571F18B819C8183309105E9F1D7
:1023D0004FC0E9E3F0E080818F3F19F481E0898309
:1023E00047C0E9E3F0E08081882311F4198240C0FE
:1023F000E9E3F0E0808189833BC0E6E3F0E080819F
:102400008F3F19F481E0898333C0E6E3F0E08081F7
:10241000882311F419822CC0E6E3F0E080818983DF
:1024200027C0E3E3F0E080818F3F19F481E08983E6
:102430001FC0E3E3F0E08081882311F4198218C003
:10244000E3E3F0E08081898313C0E0E3F0E0808182
:102450008F3F19F481E089830BC0E0E3F0E08081D5
:10246000882311F4198204C0E0E3F0E080818983BD
:1024700089810F900F900F900F90CF91DF91089569
:10248000DF93CF93CDB7DEB783E060E041E00E94F9
:102490008B0C83E061E041E00E948B0C83E062E002
:1024A00041E00E948B0C83E063E041E00E948B0CD2
:1024B00083E064E042E00E948B0C83E065E042E050
:1024C0000E948B0C83E066E042E00E948B0C83E06C
:1024D00067E042E00E948B0CCF91DF910895DF937B
:1024E000CF93CDB7DEB728970FB6F894DEBF0FBEF7
:1024F000CDBF8C8381E08B838C81869586958A8382
:102500008C818370898383E064E041E00E94990FAD
:1025100083E065E041E00E94990F83E066E041E0DE
:102520000E94990F83E067E041E00E94990F898142
:10253000282F30E038872F838F819885813091054F
:10254000D9F02F813885223031052CF48F81988580
:10255000009761F022C02F8138852230310591F03B
:102560008F8198858330910599F017C083E064E0EE
:1025700040E00E94990F11C083E065E040E00E94B6
:10258000990F0BC083E066E040E00E94990F05C000
:1025900083E067E040E00E94990F8A81282F30E0B5
:1025A0003E832D838D819E8181309105E9F02D81BF
:1025B0003E81223031052CF48D819E81009761F09F
:1025C0002AC02D813E8122303105B1F08D819E815E
:1025D00083309105C9F01FC083E060E00E9448117C
:1025E0008823C9F41B8217C083E061E00E94481170
:1025F000882389F41B820FC083E062E00E944811A7
:10260000882349F41B8207C083E063E00E944811DD
:10261000882309F41B828B8128960FB6F894DEBFBD
:102620000FBECDBFCF91DF910895DF93CF93CDB78C
:10263000DEB728970FB6F894DEBF0FBECDBF8C83F0
:1026400081E08B838C81869586958A838C818370CB
:10265000898383E064E041E00E94990F83E065E0B4
:1026600041E00E94990F83E066E041E00E94990FEB
:1026700083E067E041E00E94990F8981282F30E0D4
:1026800038872F838F81988581309105D9F02F81EC
:102690003885223031052CF48F819885009761F0C0
:1026A00022C02F8138852230310591F08F819885A5
:1026B0008330910599F017C083E064E040E00E9408
:1026C000990F11C083E065E040E00E94990F0BC0B4
:1026D00083E066E040E00E94990F05C083E067E078
:1026E00040E00E94990F8A81282F30E03E832D839D
:1026F0008D819E818130910519F12D813E8122309D
:1027000031052CF48D819E81009761F042C02D81AE
:102710003E812230310511F18D819E8183309105FA
:1027200059F137C083E060E00E944811882389F5A1
:102730001B8283E060E00E9448118823D1F329C006
:1027400083E061E00E944811882319F51B8283E031
:1027500061E00E9448118823D1F31BC083E062E04E
:102760000E9448118823A9F41B8283E062E00E9442
:1027700048118823D1F30DC083E063E00E94481123
:10278000882339F41B8283E063E00E944811882388
:10279000D1F38B8128960FB6F894DEBF0FBECDBF64
:1027A000CF91DF910895DF93CF9300D0CDB7DEB7FF
:1027B0001A8280E189831A820BC08A810E941513D4
:1027C000882319F48A81898306C08A818F5F8A836E
:1027D0008A81803190F389810F900F90CF91DF91A2
:1027E0000895DF93CF93CDB7DEB72F970FB6F89448
:1027F000DEBF0FBECDBF1F860E947F1780E090E036
:10280000A0EFB1E48B879C87AD87BE876B857C8505
:102810008D859E8520E030E04AEF54E40E94170247
:10282000DC01CB018F839887A987BA876F81788570
:1028300089859A8520E030E040E85FE30E944D04FE
:1028400088232CF481E090E09E838D833FC06F81CC
:10285000788589859A8520E03FEF4FE757E40E940D
:10286000ED0318164CF56B857C858D859E8520E0E3
:1028700030E040E251E40E941702DC01CB01BC01D0
:10288000CD010E944100DC01CB019E838D830FC0EE
:1028900088EC90E09C838B838B819C810197F1F77E
:1028A0009C838B838D819E8101979E838D838D81F7
:1028B0009E81009769F714C06F81788589859A8514
:1028C0000E944100DC01CB019E838D838D819E811E
:1028D0009A83898389819A810197F1F79A83898301
:1028E00080E38F878F8588608F878F8584608F874F
:1028F0008F850E94A91588E08F878F8584608F87D8
:102900008F8581608F878F8582608F878F858260BA
:102910008F878F850E94A91581E00E94A9152F96A7
:102920000FB6F894DEBF0FBECDBFCF91DF910895F3
:10293000DF93CF93CDB7DEB781E00E94A915CF9189
:10294000DF910895DF93CF930F92CDB7DEB78983E0
:1029500089810E9494160F90CF91DF910895DF93A3
:10296000CF9300D00F92CDB7DEB79B838A831982B5
:102970000EC08981282F30E08A819B81FC01E20F03
:10298000F31F80810E94A21489818F5F89838981CE
:10299000282F30E08A819B81FC01E20FF31F8081A8
:1029A000882339F70F900F900F90CF91DF91089502
:1029B000DF93CF9300D00F92CDB7DEB78A836B83BE
:1029C0008A81882F90E000249695879507949695A4
:1029D00087950794982F802D982F8B81890F898355
:1029E00089818068898389810E94A9150F900F9041
:1029F0000F90CF91DF910895DF93CF9300D000D057
:102A000000D0CDB7DEB79E838D831C821B821A82D5
:102A10008D819E8199235CF48D819E819095819515
:102A20009F4F9E838D838DE20E94A2142DC08D81C5
:102A30009E81009749F580E30E94A21425C08B81F6
:102A40009C819C01220F331FC901880F991F880F99
:102A5000991FF901E80FF91F8D819E812AE030E06E
:102A6000B9010E94F4198E0F9F1F9C838B838D8167
:102A70009E812AE030E0B9010E94F419CB019E83C7
:102A80008D838A818F5F8A838D819E810097B9F6BD
:102A90001BC08B819C812AE030E0B9010E94E019C3
:102AA00089838981805D898389810E94A2148B81B9
:102AB0009C812AE030E0B9010E94E019CB019C839F
:102AC0008B838A8181508A838B819C81009709F74F
:102AD00006C080E30E94A2148A8181508A838A8181
:102AE0008823B9F726960FB6F894DEBF0FBECDBF88
:102AF000CF91DF910895DF93CF9300D0CDB7DEB7AC
:102B00008A83198206C088E10E94A91589818F5F96
:102B1000898399818A819817B0F30F900F90CF9194
:102B2000DF910895DF93CF9300D0CDB7DEB78A83CE
:102B3000198206C08CE10E94A91589818F5F898363
:102B400099818A819817B0F30F900F90CF91DF9100
:102B50000895DF93CF93CDB7DEB72F970FB6F894D4
:102B6000DEBF0FBECDBF8F8781E062E040E00E94F4
:102B7000990F81E061E040E00E94990F8F85982FC6
:102B8000917080E067E0492F0E94990F8F858695AC
:102B9000982F917080E066E0492F0E94990F8F85F1
:102BA00086958695982F917080E065E0492F0E9468
:102BB000990F8F85869586958695982F917080E0E0
:102BC00064E0492F0E94990F8F8582958F70982F0E
:102BD000917080E063E0492F0E94990F8F85829564
:102BE00086958770982F917080E062E0492F0E944F
:102BF000990F8F858295869586958370982F917011
:102C000080E061E0492F0E94990F8F85982F991FCE
:102C10009927991F80E060E0492F0E94990F81E079
:102C200060E041E00E94990F80E090E0A0E0B0E415
:102C30008B879C87AD87BE876B857C858D859E85C0
:102C400020E030E04AEF54E40E941702DC01CB019F
:102C50008F839887A987BA876F81788589859A85B8
:102C600020E030E040E85FE30E944D0488232CF42C
:102C700081E090E09E838D833FC06F817885898558
:102C80009A8520E03FEF4FE757E40E94ED031816C6
:102C90004CF56B857C858D859E8520E030E040E29B
:102CA00051E40E941702DC01CB01BC01CD010E945E
:102CB0004100DC01CB019E838D830FC088EC90E046
:102CC0009C838B838B819C810197F1F79C838B8301
:102CD0008D819E8101979E838D838D819E8100973A
:102CE00069F714C06F81788589859A850E944100B3
:102CF000DC01CB019E838D838D819E819A838983A4
:102D000089819A810197F1F79A83898381E060E054
:102D100040E00E94990F2F960FB6F894DEBF0FBEC9
:102D2000CDBFCF91DF910895DF93CF93CDB7DEB7BD
:102D30002F970FB6F894DEBF0FBECDBF8F8781E00F
:102D400062E041E00E94990F81E061E040E00E9472
:102D5000990F8F85982F917080E067E0492F0E942E
:102D6000990F8F858695982F917080E066E0492FA6
:102D70000E94990F8F8586958695982F917080E097
:102D800065E0492F0E94990F8F85869586958695D7
:102D9000982F917080E064E0492F0E94990F8F85F1
:102DA00082958F70982F917080E063E0492F0E9488
:102DB000990F8F85829586958770982F917080E006
:102DC00062E0492F0E94990F8F858295869586959E
:102DD0008370982F917080E061E0492F0E94990FD5
:102DE0008F85982F991F9927991F80E060E0492FC0
:102DF0000E94990F81E060E041E00E94990F80E01D
:102E000090E0A0E0B0E48B879C87AD87BE876B85A0
:102E10007C858D859E8520E030E04AEF54E40E9459
:102E20001702DC01CB018F839887A987BA876F814E
:102E3000788589859A8520E030E040E85FE30E944C
:102E40004D0488232CF481E090E09E838D833FC065
:102E50006F81788589859A8520E03FEF4FE757E4B9
:102E60000E94ED0318164CF56B857C858D859E853B
:102E700020E030E040E251E40E941702DC01CB0187
:102E8000BC01CD010E944100DC01CB019E838D83FA
:102E90000FC088EC90E09C838B838B819C81019791
:102EA000F1F79C838B838D819E8101979E838D8317
:102EB0008D819E81009769F714C06F81788589851F
:102EC0009A850E944100DC01CB019E838D838D8118
:102ED0009E819A83898389819A810197F1F79A83E8
:102EE000898381E060E040E00E94990F2F960FB641
:102EF000F894DEBF0FBECDBFCF91DF910895DF9371
:102F0000CF93CDB7DEB781E062E042E00E948B0C48
:102F100081E061E042E00E948B0C81E060E042E0F1
:102F20000E948B0C80E067E042E00E948B0C80E006
:102F300066E042E00E948B0C80E065E042E00E9487
:102F40008B0C80E064E042E00E948B0C80E063E048
:102F500042E00E948B0C80E062E042E00E948B0C19
:102F600080E061E042E00E948B0C80E060E042E0A3
:102F70000E948B0CCF91DF910895DF93CF93CDB753
:102F8000DEB783E060E042E00E948B0C83E061E00A
:102F900042E00E948B0C83E062E042E00E948B0CD6
:102FA00083E063E042E00E948B0C83E064E042E057
:102FB0000E948B0C83E065E042E00E948B0C83E072
:102FC00066E042E00E948B0CCF91DF910895DF9381
:102FD000CF9300D00F92CDB7DEB789838981282F98
:102FE00030E03B832A838A819B818430910509F4F8
:102FF000D7C02A813B8125303105ECF48A819B8141
:103000008130910509F460C02A813B81223031056D
:103010002CF48A819B81009799F19AC12A813B8186
:103020002230310509F474C08A819B818330910577
:1030300009F492C08DC12A813B812730310509F402
:103040001BC18A819B81883091056CF42A813B8168
:103050002530310509F4C8C08A819B8186309105ED
:1030600009F4E6C075C12A813B812830310509F495
:1030700027C18A819B818930910509F445C168C1C6
:1030800083E060E041E00E94990F83E061E041E06D
:103090000E94990F83E062E041E00E94990F83E073
:1030A00063E041E00E94990F83E064E041E00E9408
:1030B000990F83E065E041E00E94990F83E066E0AC
:1030C00040E00E94990F67C183E060E040E00E9409
:1030D000990F83E061E041E00E94990F83E062E094
:1030E00041E00E94990F83E063E040E00E94990F65
:1030F00083E064E040E00E94990F83E065E040E0F7
:103100000E94990F83E066E040E00E94990F43C15E
:1031100083E060E041E00E94990F83E061E041E0DC
:103120000E94990F83E062E040E00E94990F83E0E3
:1031300063E041E00E94990F83E064E041E00E9477
:10314000990F83E065E040E00E94990F83E066E01C
:1031500041E00E94990F1FC183E060E041E00E94BE
:10316000990F83E061E041E00E94990F83E062E003
:1031700041E00E94990F83E063E041E00E94990FD3
:1031800083E064E040E00E94990F83E065E040E066
:103190000E94990F83E066E041E00E94990FFBC016
:1031A00083E060E040E00E94990F83E061E041E04D
:1031B0000E94990F83E062E041E00E94990F83E052
:1031C00063E040E00E94990F83E064E040E00E94E9
:1031D000990F83E065E041E00E94990F83E066E08B
:1031E00041E00E94990FD7C083E060E041E00E9477
:1031F000990F83E061E040E00E94990F83E062E074
:1032000041E00E94990F83E063E041E00E94990F42
:1032100083E064E040E00E94990F83E065E041E0D4
:103220000E94990F83E066E041E00E94990FB3C0CD
:1032300083E060E041E00E94990F83E061E040E0BC
:103240000E94990F83E062E041E00E94990F83E0C1
:1032500063E041E00E94990F83E064E041E00E9456
:10326000990F83E065E041E00E94990F83E066E0FA
:1032700041E00E94990F8FC083E060E041E00E942E
:10328000990F83E061E041E00E94990F83E062E0E2
:1032900041E00E94990F83E063E040E00E94990FB3
:1032A00083E064E040E00E94990F83E065E040E045
:1032B0000E94990F83E066E040E00E94990F6BC086
:1032C00083E060E041E00E94990F83E061E041E02B
:1032D0000E94990F83E062E041E00E94990F83E031
:1032E00063E041E00E94990F83E064E041E00E94C6
:1032F000990F83E065E041E00E94990F83E066E06A
:1033000041E00E94990F47C083E060E041E00E94E5
:10331000990F83E061E041E00E94990F83E062E051
:1033200041E00E94990F83E063E041E00E94990F21
:1033300083E064E040E00E94990F83E065E041E0B3
:103340000E94990F83E066E041E00E94990F23C03C
:1033500083E060E040E00E94990F83E061E040E09C
:103360000E94990F83E062E040E00E94990F83E0A1
:1033700063E040E00E94990F83E064E040E00E9437
:10338000990F83E065E040E00E94990F83E066E0DA
:1033900040E00E94990F0F900F900F90CF91DF9116
:1033A0000895DF93CF93CDB7DEB70E9440120E94FD
:1033B000F1130E94C70A80E090E0CF91DF91089559
:1033C000AA1BBB1B51E107C0AA1FBB1FA617B7074B
:1033D00010F0A61BB70B881F991F5A95A9F7809567
:1033E0009095BC01CD01089597FB092E07260AD0C0
:1033F00077FD04D0E5DF06D000201AF470956195C2
:103400007F4F0895F6F7909581959F4F08952F92DD
:103410003F924F925F926F927F928F929F92AF9264
:10342000BF92CF92DF92EF92FF920F931F93CF93B1
:10343000DF93CDB7DEB7CA1BDB0B0FB6F894DEBF48
:103440000FBECDBF09942A88398848885F846E846E
:103450007D848C849B84AA84B984C884DF80EE80B8
:10346000FD800C811B81AA81B981CE0FD11D0FB6C1
:10347000F894DEBF0FBECDBFED010895F894FFCFE5
:10348000526573756C74203D20004D617468204551
:1034900072726F7200000000000000000000010264
:1034A00002030303030404040404040404050505DF
:1034B00005050505050505050505050505060606B9
:1034C000060606060606060606060606060606069C
:1034D0000606060606060606060606060607070789
:1034E000070707070707070707070707070707076C
:1034F000070707070707070707070707070707075C
:10350000070707070707070707070707070707074B
:103510000707070707070707070707070708080838
:10352000080808080808080808080808080808081B
:10353000080808080808080808080808080808080B
:1035400008080808080808080808080808080808FB
:1035500008080808080808080808080808080808EB
:1035600008080808080808080808080808080808DB
:1035700008080808080808080808080808080808CB
:1035800008080808080808080808080808080808BB
:0E3590000808080808080808080808080800C5
:00000001FF
